:020000040000FA
:100000008316FF23900054309F00831289309F0095
:1000100007309900831699013D3085000F3081002B
:100020000130950083128501640083168E18C32861
:100030008E1483163130950083120030051A013E6C
:10004000851A023EA30083160130950083128514A1
:10005000303090008E018F010C1031309000133041
:10006000A90064009920051C362831289F146400DB
:100070009F1837281E08A40083161E088312A500A7
:100080002308A0000310A00D200DA4042408A6003E
:100090002508A607A60AA60AA0011A30A10005187D
:1000A00058286400A00F4F28A10B4F288510312835
:1000B0002102031D5D28A01F31288316051083121D
:1000C0000514942005109420942094209420051465
:1000D000942094209420942005109420942070283B
:1000E0007128722824087E2025087E2026087E207C
:1000F000051483160514151483123128A100083045
:10010000A200051494208428A10D031C8B289420A0
:1001100094208A288B280510942094208F289028DA
:100120009128A20B812808000530A000A00B96287A
:1001300008000C1C08000C10A90B08002308A200E2
:10014000A20AA20BA528851408008510A20BAD28D1
:100150000030A0003230A100B828A20BB428013032
:10016000A0002230A100B8280230A0004E30A1002B
:1001700090018F018E018316093081008312640083
:1001800001309000C2288E1483120F08A7000E08B9
:10019000A8000F30A4004230A5004030A6002E2158
:1001A0002608A200A401A601031022082118A40712
:1001B000A40CA60CA118A407A40CA60C2119A40732
:1001C000A40CA60CA119A407A40CA60C211AA40720
:1001D000A40CA60CA11AA407A40CA60C211BA4070E
:1001E000A40CA60CA11BA407A40CA60CA501201806
:1001F000A407A40CA50CA018A407A40CA50C2019F6
:10020000A407A40CA50CA019A407A40CA50C201AE3
:10021000A407A40CA50CA01AA407A40CA50C201BD1
:10022000A407A40CA50CA01BA407A40CA50CA70153
:100230004030A8002E2183160F3081000030950039
:10024000831288309F00900164006300A60B24296C
:1002500089309F008316013095002628AA01AB0142
:100260001830A900260DA50DA40DAB0DAA0DA60DE5
:100270002808AB022708031C270FAA02031826141C
:1002800026184529AA072808AB07A90B3229080018
:02400E009C3FD5
:00000001FF
